S01100004441325F5461736B312E7372656339
S11300000C9434000C943E000C943E000C943E007E
S11300100C943E000C943E000C943E000C943E0064
S11300200C943E000C943E000C943E000C943E0054
S11300300C943E000C943E000C943E000C943E0044
S11300400C943E000C943E000C943E000C943E0034
S11300500C943E000C943E000C943E000C943E0024
S11300600C943E000C943E0011241FBECFEFD8E048
S1130070DEBFCDBF0E9440000C9455000C940000DC
S113008084E084B91092800085E080938100E4E8E4
S1130090F0E080819181803A9740D8F311821082F8
S11100A094B185B1892785B9F4CFF894FFCFC8
S9030000FC
