:100000000C9434000C943E000C943E000C943E0082
:100010000C943E000C943E000C943E000C943E0068
:100020000C943E000C943E000C943E000C943E0058
:100030000C943E000C943E000C943E000C943E0048
:100040000C943E000C943E000C943E000C943E0038
:100050000C943E000C943E000C943E000C943E0028
:100060000C943E000C943E0011241FBECFEFD8E04C
:10007000DEBFCDBF0E9440000C9459000C940000DC
:1000800084E084B985E0809381008DE09FEF9093B8
:10009000850080938400E4E8F0E02DE03FEFB09B22
:1000A000FECF94B185B1892785B931832083B09A79
:0600B000F6CFF894FFCF2B
:00000001FF
