:100000000C9434000C943E000C943E000C943E0082
:100010000C943E000C943E000C943E000C943E0068
:100020000C943E000C943E000C943E000C943E0058
:100030000C943E000C9440000C943E000C943E0046
:100040000C943E000C943E000C943E000C943E0038
:100050000C943E000C943E000C943E000C943E0028
:100060000C943E000C943E0011241FBECFEFD8E04C
:10007000DEBFCDBF0E9458000C946A000C940000B3
:100080001F920F920FB60F9211248F939F9394B1EA
:1000900085B1892785B98DE09FEF90938500809386
:1000A00084009F918F910F900FBE0F901F90189515
:1000B00084E084B985E0809381008DE09FEF909388
:1000C000850080938400EFE6F0E08081816080838A
:0800D0007894FFCFF894FFCFF4
:00000001FF
