S01300004441325F5461736B325F632E7372656374
S11300000C9434000C943E000C943E000C943E007E
S11300100C943E000C943E000C943E000C943E0064
S11300200C943E000C943E000C943E000C943E0054
S11300300C943E000C943E000C943E000C943E0044
S11300400C943E000C943E000C943E000C943E0034
S11300500C943E000C943E000C943E000C943E0024
S11300600C943E000C943E0011241FBECFEFD8E048
S1130070DEBFCDBF0E9440000C945C000C940000D5
S113008084E08AB984B92A9A4A9B14C02FEF89E67E
S113009098E1215080409040E1F700C000002A9A86
S11300A02FEF83ED90E3215080409040E1F700C0B2
S10F00B00000EACF2A98E8CFF894FFCFB4
S9030000FC
