S01300004441325F5461736B355F632E7372656371
S11300000C9434000C944A000C943E000C943E0072
S11300100C943E000C943E000C943E000C943E0064
S11300200C943E000C943E000C943E000C943E0054
S11300300C943E000C943E000C943E000C943E0044
S11300400C943E000C943E000C943E000C943E0034
S11300500C943E000C943E000C943E000C943E0024
S11300600C943E000C943E0011241FBECFEFD8E048
S1130070DEBFCDBF0E9440000C9476000C940000BB
S113008084E084B9529881E08DBB83E08093690059
S11300907894FFCF1F920F920FB60F9211242F93D3
S11300A08F939F9381EE94E00197F1F700C00000D5
S11300B04A9B14C09FE32DE083E091502040804090
S11300C0E1F700C000002A9A9FE72AE186E09150F8
S11300D020408040E1F700C000002A989F918F9152
S11300E02F910F900FBE0F901F901895F894FFCF8B
S9030000FC
